:100000000C945D000C9485000C9485000C94850084
:100010000C9485000C9485000C9485000C9485004C
:100020000C9485000C9485000C9485000C9485003C
:100030000C9485000C9485000C9485000C9485002C
:100040000C9417030C9485000C9485000C94850087
:100050000C9485000C9485000C9485000C9485000C
:100060000C9485000C9485000000000024002700FB
:100070002A0000000000250028002B0004040404CE
:100080000404040402020202020203030303030342
:10009000010204081020408001020408102001021F
:1000A00004081020000000080002010000030407FB
:1000B0000000000000000000400511241FBECFEF2B
:1000C000D8E0DEBFCDBF11E0A0E0B1E0E4EAFEE0A1
:1000D00002C005900D92AC35B107D9F721E0ACE52F
:1000E000B1E001C01D92AD37B207E1F710E0CDE5F8
:1000F000D0E004C02197FE010E944A07CC35D10709
:10010000C9F70E9461030C9450070C940000AF9251
:10011000BF92CF92DF92EF92FF920F931F93CF93F4
:10012000DF936C017B018B01040F151FEB015E0156
:10013000AE18BF08C017D10759F06991D601ED91EB
:10014000FC910190F081E02DC6010995892B79F78A
:10015000C501DF91CF911F910F91FF90EF90DF903C
:10016000CF90BF90AF90089590E0FC01EC55FF4F09
:100170002491FC01E057FF4F3491FC01E458FF4FFC
:10018000E491EE23C9F0222339F0233001F1A8F4E1
:10019000213019F1223029F1F0E0EE0FFF1FEE5867
:1001A000FF4FA591B4918FB7F894EC91611126C0DF
:1001B00030953E233C938FBF08952730A9F0283017
:1001C000C9F0243049F7809180008F7D03C0809171
:1001D00080008F7780938000DFCF84B58F7784BDD8
:1001E000DBCF84B58F7DFBCF8091B0008F7780937C
:1001F000B000D2CF8091B0008F7DF9CF3E2BDACF07
:10020000CF93DF9390E0FC01E057FF4F2491845897
:100210009F4FFC0184918823D1F090E0880F991FB3
:10022000FC01E859FF4FA591B491FC01EE58FF4F36
:10023000C591D49161110EC09FB7F8948C91E22FB3
:10024000E0958E238C932881E223E8839FBFDF9182
:10025000CF9108958FB7F894EC91E22BEC938FBF78
:10026000F6CF8E3008F08E508770806480937C00CB
:1002700080917A00806480937A0080917A0086FD74
:10028000FCCF809178009091790008953FB7F89461
:100290008091610190916201A0916301B09164012C
:1002A00026B5A89B05C02F3F19F00196A11DB11DD1
:1002B0003FBFBA2FA92F982F8827BC01CD01620F0D
:1002C000711D811D911D42E0660F771F881F991FC8
:1002D0004A95D1F70895089590E080E00895FC01D3
:1002E00001900020E9F73197AF01481B590BBC0181
:1002F00085E691E00C9487008F929F92AF92BF9217
:100300000F931F93CF93DF93CDB7DEB7A1970FB6AF
:10031000F894DEBF0FBECDBF19A2423008F44AE008
:100320008E010F5D1F4F842E912CB12CA12CA501A5
:1003300094010E942807E62FB901CA01EA30F4F4BB
:10034000E05DD801EE938D01232B242B252B79F72B
:1003500090E080E0109719F0CD010E946F01A19606
:100360000FB6F894DEBF0FBECDBFDF91CF911F91C6
:100370000F91BF90AF909F908F900895E95CE1CF6F
:10038000CF93DF93EC0160E08E810E94B40061E0C6
:100390008E810E94B40060E08E810E94B4008BE8E0
:1003A00091E00197F1F7DF91CF910895CF92DF921D
:1003B000EF92FF920F931F93CF93DF936C017C0119
:1003C00087E0E80EF11CD0E0C0E0062F10E0B80195
:1003D0000C2E02C0759567950A94E2F76170F701DB
:1003E00081917F010E94B4002196C430D10579F734
:1003F000C601DF91CF911F910F91FF90EF90DF9099
:10040000CF900C94C001CF92DF92EF92FF920F93A6
:100410001F93CF93DF93EC01F62E642F8C810E9403
:10042000B4008D818F3F19F060E00E94B4000F2D61
:1004300010E08F8584FF25C06E0187E0C80ED11CB7
:10044000F12CE12CB8010E2C02C0759567950A9429
:10045000E2F76170F60181916F010E94B400FFEF35
:10046000EF1AFF0A88E0E816F10461F7CE01DF9188
:10047000CF911F910F91FF90EF90DF90CF900C9450
:10048000C001B80184E0759567958A95E1F7CE01C2
:100490000E94D6016F2DCE01DF91CF911F910F9158
:1004A000FF90EF90DF90CF900C94D60140E0682F42
:1004B00085E691E00C940302CF93DF93823029F418
:1004C00090917401986090937401809378011092D8
:1004D000790180E480937A0180E180937B0180E55B
:1004E00080937C0161E0809169010E94000180910C
:1004F0006A018F3F19F061E00E94000161E0809184
:100500006B010E940001C5E6D1E09E0125563140F5
:100510008091740184FD0BC084E090E0219628173F
:10052000390744F461E08E810E940001EECF88E03B
:1005300090E0F4CF8BE39DE00197F1F760E08091CC
:1005400069010E94B40060E080916B010E94B400D8
:1005500080916A018F3F19F060E00E94B4008091A1
:10056000740184FD39C063E085E691E00E94D60104
:10057000CBE4D6E4CE010197F1F763E085E691E0A4
:100580000E94D6012197F1F763E085E691E00E9491
:10059000D60183E592E00197F1F762E085E691E00C
:1005A0000E94D6018091740180620E94560284E00C
:1005B000809375018CE00E94560281E00E945602F1
:1005C0008BE39FE10197F1F782E08093760186E06B
:1005D000DF91CF910C94560280620E9456028BE408
:1005E00096E40197F1F78091740180620E945602AF
:1005F00083E592E00197F1F78091740180620E9497
:100600005602D0CF90917801691710F06FEF690F03
:10061000E62FF0E0EB59FE4F9489890F80680C9427
:10062000560241E00E94030281E090E008951F928B
:100630000F920FB60F9211242F933F938F939F9396
:10064000AF93BF9380915D0190915E01A0915F0196
:10065000B091600130915C0123E0230F2D3758F5F4
:100660000196A11DB11D20935C0180935D019093C3
:100670005E01A0935F01B093600180916101909150
:100680006201A0916301B09164010196A11DB11DA9
:100690008093610190936201A0936301B093640120
:1006A000BF91AF919F918F913F912F910F900FBE6E
:1006B0000F901F90189526E8230F0296A11DB11DDB
:1006C000D2CF789484B5826084BD84B5816084BDC6
:1006D00085B5826085BD85B5816085BD80916E00E0
:1006E000816080936E001092810080918100826011
:1006F000809381008091810081608093810080914E
:1007000080008160809380008091B100846080933C
:10071000B1008091B00081608093B00080917A0038
:10072000846080937A0080917A00826080937A005E
:1007300080917A00816080937A0080917A0080684D
:1007400080937A001092C10060E080E10E94000175
:1007500061E08CE00E94000161E08BE00E940001FA
:1007600061E08AE00E94000161E089E00E940001EE
:1007700060E083E10E94000161E08DE00E940001E1
:1007800061E088E00E94000182E00E945C0260E07B
:1007900080E00E9402038CE091E00E946F0115E06E
:1007A000C0E0D0E083E10E943101189FB001199FA1
:1007B000700D1124072E000C880B990B0E94010666
:1007C00020E030E040E85AE30E94B60620E030E046
:1007D00048EC52E40E94B6066B017C0160E085E0C3
:1007E0000E940203A7019601C701B6010E942307D8
:1007F000882309F4A0C08DE191E00E946F0180E19F
:100800000E943101853F9140C4F061E08CE00E947C
:10081000B40061E08BE00E94B40060E08AE00E94D6
:10082000B40060E089E00E94B40061E080E00E94D2
:10083000020389E291E00E946F0180E10E94310190
:100840008B3F9105F4F080E10E943101843F91409B
:10085000C4F460E08CE00E94B40060E08BE00E9491
:10086000B40061E08AE00E94B40060E089E00E9488
:10087000B40061E080E00E9402038AE391E00E94FC
:100880006F0180E10E9431018A3F9105C4F460E06C
:100890008CE00E94B40060E08BE00E94B40060E055
:1008A0008AE00E94B40061E089E00E94B40061E047
:1008B00080E00E9402038BE491E00E946F0120E03F
:1008C00030E048EC51E4C701B6010E94B10687FD53
:1008D000C6C060E08DE00E94B40061E088E00E9444
:1008E000B4000E9446014B015C018AE0C82ED12C65
:1008F000E12CF12C0E944601681979098A099B09AB
:10090000683E734081059105A8F381E0C81AD108BB
:10091000E108F10828EE820E23E0921EA11CB11C12
:10092000C114D104E104F10429F7209709F43ACF66
:100930000E94000037CF46015701E894B7F82FEF27
:100940003FEF4FE75FE7C501B4010E942307811124
:100950000DC02FEF3FEF4FE75FE7C501B4010E94E5
:10096000CB0518161CF481E291E047CF2FEF3FEF43
:100970004FE75FE4C701B6010E94B10618161CF4E8
:1009800085E291E03ACF2FEF3FEF4FE75FECC701F1
:10099000B6010E94CB0587FDF3CF20E030E0A9012E
:1009A000C701B6010E94CB0587FF56C041E06DE24A
:1009B00085E691E00E940302C701B60190582AE043
:1009C00037ED43EA5BE30E945F052B013C010E9487
:1009D000D0054B015C010E94FF059B01AC01C301E6
:1009E000B2010E945E052B013C014AE0C501B40141
:1009F0000E947C0141E06EE285E691E00E940302E4
:100A000020E030E040E251E4C301B2010E94B606AA
:100A10002B013C010E94D0054B01B12CA12C4AE0D6
:100A2000C501B4010E947C01C501B4010E94FF050B
:100A30009B01AC01C301B2010E945E0520E030E0E1
:100A400040E251E40E94B6060E94D00590E080E0AA
:100A50004AE00E947C01D3CEC701B601B0CF20E0AE
:100A600030E040EA51E4C701B6010E94CB0561E0E5
:100A700018160CF460E08DE00E94B40060E02ECF08
:100A8000E5E6F1E01382128284E091E091838083B5
:100A900087E084838FEF858386E0868385E0878384
:100AA00084E0808783E0818782E0828713861486D2
:100AB00015861686178681E00C945C025058BB2779
:100AC000AA270E9476050C9477060E94690638F0E2
:100AD0000E94700620F039F49F3F19F426F40C941C
:100AE00066060EF4E095E7FB0C946006E92F0E9481
:100AF000880658F3BA17620773078407950720F032
:100B000079F4A6F50C94AA060EF4E0950B2EBA2FF4
:100B1000A02D0B01B90190010C01CA01A001112403
:100B2000FF27591B99F0593F50F4503E68F11A16AF
:100B3000F040A22F232F342F4427585FF3CF469540
:100B400037952795A795F0405395C9F77EF41F1662
:100B5000BA0B620B730B840BBAF09150A1F0FF0F2C
:100B6000BB1F661F771F881FC2F70EC0BA0F621F18
:100B7000731F841F48F4879577956795B795F79508
:100B80009E3F08F0B0CF9395880F08F09927EE0F9D
:100B90009795879508950E943C0608F481E0089592
:100BA0000E94900688F09F5798F0B92F9927B75167
:100BB000B0F0E1F0660F771F881F991F1AF0BA9501
:100BC000C9F714C0B13091F00E94AA06B1E00895AF
:100BD0000C94AA06672F782F8827B85F39F0B93FA1
:100BE000CCF3869577956795B395D9F73EF49095B4
:100BF0008095709561957F4F8F4F9F4F0895E89432
:100C000009C097FB3EF490958095709561957F4F54
:100C10008F4F9F4F9923A9F0F92F96E9BB27939502
:100C2000F695879577956795B795F111F8CFFAF412
:100C3000BB0F11F460FF1BC06F5F7F4F8F4F9F4F43
:100C400016C0882311F096E911C0772321F09EE8A1
:100C5000872F762F05C0662371F096E8862F70E007
:100C600060E02AF09A95660F771F881FDAF7880FE1
:100C70009695879597F90895990F0008550FAA0B37
:100C8000E0E8FEEF16161706E807F907C0F012169F
:100C90001306E407F50798F0621B730B840B950BA2
:100CA00039F40A2661F0232B242B252B21F40895F7
:100CB0000A2609F4A140A6958FEF811D811D089594
:100CC00097F99F6780E870E060E008959FEF80ECFF
:100CD000089500240A9416161706180609060895A2
:100CE00000240A9412161306140605060895092E08
:100CF0000394000C11F4882352F0BB0F40F4BF2B77
:100D000011F460FF04C06F5F7F4F8F4F9F4F0895B6
:100D100057FD9058440F551F59F05F3F71F04795AC
:100D2000880F97FB991F61F09F3F79F08795089591
:100D3000121613061406551FF2CF4695F1DF08C0B0
:100D4000161617061806991FF1CF869571056105CD
:100D500008940895E894BB2766277727CB0197F975
:100D600008950E943C0608F48FEF08950E94C9067A
:100D70000C9477060E94690638F00E94700620F0F5
:100D8000952311F00C9460060C94660611240C94C3
:100D9000AB060E94880670F3959FC1F3950F50E053
:100DA000551F629FF001729FBB27F00DB11D639F1D
:100DB000AA27F00DB11DAA1F649F6627B00DA11DC3
:100DC000661F829F2227B00DA11D621F739FB00D69
:100DD000A11D621F839FA00D611D221F749F3327D9
:100DE000A00D611D231F849F600D211D822F762F72
:100DF0006A2F11249F5750409AF0F1F088234AF04F
:100E0000EE0FFF1FBB1F661F771F881F91505040BA
:100E1000A9F79E3F510580F00C9460060C94AB0638
:100E20005F3FE4F3983ED4F3869577956795B79541
:100E3000F795E7959F5FC1F7FE2B880F911D96955B
:100E4000879597F908950E943C06880B990B0895A1
:100E5000A1E21A2EAA1BBB1BFD010DC0AA1FBB1FBE
:100E6000EE1FFF1FA217B307E407F50720F0A21B30
:100E7000B30BE40BF50B661F771F881F991F1A949D
:100E800069F760957095809590959B01AC01BD01C7
:100E9000CF010895EE0FFF1F0590F491E02D099406
:040EA000F894FFCFF4
:100EA40000000000110387006C016B01202020204A
:100EB400202020202020204320202020006E616E4E
:100EC40000696E66006F7666002020202020205383
:100ED40045434F20202020202000204E4956454CD9
:100EE4002052415A4F4156454C2000202020204991
:0C0EF4005252494741444F20202020006A
:00000001FF
